{
  "contractName": "EthSwap",
  "abi": [
    {
      "inputs": [
        {
          "internalType": "contract Token",
          "name": "_token",
          "type": "address"
        }
      ],
      "stateMutability": "nonpayable",
      "type": "constructor"
    },
    {
      "anonymous": false,
      "inputs": [
        {
          "indexed": false,
          "internalType": "address",
          "name": "account",
          "type": "address"
        },
        {
          "indexed": false,
          "internalType": "address",
          "name": "token",
          "type": "address"
        },
        {
          "indexed": false,
          "internalType": "uint256",
          "name": "amount",
          "type": "uint256"
        },
        {
          "indexed": false,
          "internalType": "uint256",
          "name": "rate",
          "type": "uint256"
        }
      ],
      "name": "TokensPurchased",
      "type": "event"
    },
    {
      "anonymous": false,
      "inputs": [
        {
          "indexed": false,
          "internalType": "address",
          "name": "account",
          "type": "address"
        },
        {
          "indexed": false,
          "internalType": "address",
          "name": "token",
          "type": "address"
        },
        {
          "indexed": false,
          "internalType": "uint256",
          "name": "amount",
          "type": "uint256"
        },
        {
          "indexed": false,
          "internalType": "uint256",
          "name": "rate",
          "type": "uint256"
        }
      ],
      "name": "TokensSold",
      "type": "event"
    },
    {
      "inputs": [],
      "name": "name",
      "outputs": [
        {
          "internalType": "string",
          "name": "",
          "type": "string"
        }
      ],
      "stateMutability": "view",
      "type": "function",
      "constant": true
    },
    {
      "inputs": [],
      "name": "token",
      "outputs": [
        {
          "internalType": "contract Token",
          "name": "",
          "type": "address"
        }
      ],
      "stateMutability": "view",
      "type": "function",
      "constant": true
    },
    {
      "inputs": [],
      "name": "buyTokens",
      "outputs": [],
      "stateMutability": "payable",
      "type": "function",
      "payable": true
    },
    {
      "inputs": [
        {
          "internalType": "uint256",
          "name": "_amount",
          "type": "uint256"
        }
      ],
      "name": "sellTokens",
      "outputs": [],
      "stateMutability": "nonpayable",
      "type": "function"
    }
  ],
  "bytecode": "0x60806040526040518060400160405280601881526020017f4574685377617020496e7374616e742045786368616e676500000000000000008152506000908051906020019062000051929190620000d2565b5060646002553480156200006457600080fd5b5060405162000c7838038062000c7883398181016040528101906200008a919062000200565b80600160006101000a81548173ffffffffffffffffffffffffffffffffffffffff021916908373ffffffffffffffffffffffffffffffffffffffff1602179055505062000297565b828054620000e09062000261565b90600052602060002090601f01602090048101928262000104576000855562000150565b82601f106200011f57805160ff191683800117855562000150565b8280016001018555821562000150579182015b828111156200014f57825182559160200191906001019062000132565b5b5090506200015f919062000163565b5090565b5b808211156200017e57600081600090555060010162000164565b5090565b600080fd5b600073ffffffffffffffffffffffffffffffffffffffff82169050919050565b6000620001b48262000187565b9050919050565b6000620001c882620001a7565b9050919050565b620001da81620001bb565b8114620001e657600080fd5b50565b600081519050620001fa81620001cf565b92915050565b60006020828403121562000219576200021862000182565b5b60006200022984828501620001e9565b91505092915050565b7f4e487b7100000000000000000000000000000000000000000000000000000000600052602260045260246000fd5b600060028204905060018216806200027a57607f821691505b6020821081141562000291576200029062000232565b5b50919050565b6109d180620002a76000396000f3fe60806040526004361061003f5760003560e01c806306fdde03146100445780636c11bcd31461006f578063d0febe4c14610098578063fc0c546a146100a2575b600080fd5b34801561005057600080fd5b506100596100cd565b6040516100669190610596565b60405180910390f35b34801561007b57600080fd5b50610096600480360381019061009191906105f3565b61015b565b005b6100a06102c9565b005b3480156100ae57600080fd5b506100b76104d7565b6040516100c4919061069f565b60405180910390f35b600080546100da906106e9565b80601f0160208091040260200160405190810160405280929190818152602001828054610106906106e9565b80156101535780601f1061012857610100808354040283529160200191610153565b820191906000526020600020905b81548152906001019060200180831161013657829003601f168201915b505050505081565b60006002548261016b9190610779565b90508047101561017a57600080fd5b600160009054906101000a900473ffffffffffffffffffffffffffffffffffffffff1673ffffffffffffffffffffffffffffffffffffffff166323b872dd3330856040518463ffffffff1660e01b81526004016101d9939291906107da565b6020604051808303816000875af11580156101f8573d6000803e3d6000fd5b505050506040513d601f19601f8201168201806040525081019061021c9190610849565b503373ffffffffffffffffffffffffffffffffffffffff166108fc829081150290604051600060405180830381858888f19350505050158015610263573d6000803e3d6000fd5b507f697c42d55a5e1fed3f464ec6f38b32546a0bd368dc8068b065c67566d73f329033600160009054906101000a900473ffffffffffffffffffffffffffffffffffffffff16846002546040516102bd9493929190610876565b60405180910390a15050565b6000600254346102d991906108bb565b905080600160009054906101000a900473ffffffffffffffffffffffffffffffffffffffff1673ffffffffffffffffffffffffffffffffffffffff166370a08231306040518263ffffffff1660e01b81526004016103379190610915565b602060405180830381865afa158015610354573d6000803e3d6000fd5b505050506040513d601f19601f820116820180604052508101906103789190610945565b101580156103935750600360009054906101000a900460ff16155b61039c57600080fd5b6001600360006101000a81548160ff021916908315150217905550600160009054906101000a900473ffffffffffffffffffffffffffffffffffffffff1673ffffffffffffffffffffffffffffffffffffffff1663a9059cbb33836040518363ffffffff1660e01b8152600401610414929190610972565b6020604051808303816000875af1158015610433573d6000803e3d6000fd5b505050506040513d601f19601f820116820180604052508101906104579190610849565b507f6faf93231a456e552dbc9961f58d9713ee4f2e69d15f1975b050ef0911053a7b33600160009054906101000a900473ffffffffffffffffffffffffffffffffffffffff16836002546040516104b19493929190610876565b60405180910390a16000600360006101000a81548160ff02191690831515021790555050565b600160009054906101000a900473ffffffffffffffffffffffffffffffffffffffff1681565b600081519050919050565b600082825260208201905092915050565b60005b8381101561053757808201518184015260208101905061051c565b83811115610546576000848401525b50505050565b6000601f19601f8301169050919050565b6000610568826104fd565b6105728185610508565b9350610582818560208601610519565b61058b8161054c565b840191505092915050565b600060208201905081810360008301526105b0818461055d565b905092915050565b600080fd5b6000819050919050565b6105d0816105bd565b81146105db57600080fd5b50565b6000813590506105ed816105c7565b92915050565b600060208284031215610609576106086105b8565b5b6000610617848285016105de565b91505092915050565b600073ffffffffffffffffffffffffffffffffffffffff82169050919050565b6000819050919050565b600061066561066061065b84610620565b610640565b610620565b9050919050565b60006106778261064a565b9050919050565b60006106898261066c565b9050919050565b6106998161067e565b82525050565b60006020820190506106b46000830184610690565b92915050565b7f4e487b7100000000000000000000000000000000000000000000000000000000600052602260045260246000fd5b6000600282049050600182168061070157607f821691505b60208210811415610715576107146106ba565b5b50919050565b7f4e487b7100000000000000000000000000000000000000000000000000000000600052601260045260246000fd5b7f4e487b7100000000000000000000000000000000000000000000000000000000600052601160045260246000fd5b6000610784826105bd565b915061078f836105bd565b92508261079f5761079e61071b565b5b828204905092915050565b60006107b582610620565b9050919050565b6107c5816107aa565b82525050565b6107d4816105bd565b82525050565b60006060820190506107ef60008301866107bc565b6107fc60208301856107bc565b61080960408301846107cb565b949350505050565b60008115159050919050565b61082681610811565b811461083157600080fd5b50565b6000815190506108438161081d565b92915050565b60006020828403121561085f5761085e6105b8565b5b600061086d84828501610834565b91505092915050565b600060808201905061088b60008301876107bc565b61089860208301866107bc565b6108a560408301856107cb565b6108b260608301846107cb565b95945050505050565b60006108c6826105bd565b91506108d1836105bd565b9250817fffffffffffffffffffffffffffffffffffffffffffffffffffffffffffffffff048311821515161561090a5761090961074a565b5b828202905092915050565b600060208201905061092a60008301846107bc565b92915050565b60008151905061093f816105c7565b92915050565b60006020828403121561095b5761095a6105b8565b5b600061096984828501610930565b91505092915050565b600060408201905061098760008301856107bc565b61099460208301846107cb565b939250505056fea2646970667358221220efe61e7aece37f64c5d5bf30a0d142e05ca10c63d32756f6ca359b2ea2df811364736f6c634300080a0033",
  "immutableReferences": {},
  "source": "//SPDX-License-Identifier: UNLICENSED\npragma solidity ^0.8.10;\n\nimport \"./Token.sol\";\n\ncontract EthSwap {\n    string public name = \"EthSwap Instant Exchange\";\n    Token public token;\n    uint256 private rate = 100;\n    bool private flag;\n\n    event TokensPurchased(\n        address account,\n        address token,\n        uint256 amount,\n        uint256 rate\n    );\n\n    event TokensSold(\n        address account,\n        address token,\n        uint256 amount,\n        uint256 rate\n    );\n\n    constructor(Token _token) {\n        token = _token;\n    }\n\n    function buyTokens() public payable {\n        //calculate the number of tokens to buy\n        uint256 tokenAmount = msg.value * rate;\n\n        //check that contract has enough tokens to sell\n        require(token.balanceOf(address(this)) >= tokenAmount && !flag);\n\n        //transfer the tokens\n        flag = true;\n        token.transfer(msg.sender, tokenAmount);\n\n        //Emit an event\n        emit TokensPurchased(msg.sender, address(token), tokenAmount, rate);\n        flag = false;\n    }\n\n    function sellTokens(uint256 _amount) public {\n        //\n        // require(token.balanceOf(msg.sender) >= _amount);\n\n        //Calculate the amount of ether to redeem\n        uint256 etherAmount = _amount / rate;\n\n        //\n        require(address(this).balance >= etherAmount);\n\n        //Perform sale\n        token.transferFrom(msg.sender, address(this), _amount);\n        payable(msg.sender).transfer(etherAmount);\n\n        //Emit an event\n        emit TokensSold(msg.sender, address(token), _amount, rate);\n    }\n}\n",
  "sourcePath": "/Users/paramjeetsingh/Repos/eth-swap/src/contracts/EthSwap.sol",
  "compiler": {
    "name": "solc",
    "version": "0.8.10+commit.fc410830.Emscripten.clang"
  },
  "schemaVersion": "3.4.3",
  "updatedAt": "2022-02-08T17:53:25.737Z",
  "networkType": "ethereum",
  "devdoc": {
    "kind": "dev",
    "methods": {},
    "version": 1
  },
  "userdoc": {
    "kind": "user",
    "methods": {},
    "version": 1
  }
}